:020000040800F2
:10000000603400205101000805700008D96A00081A
:1000100001700008351A000885AE000800000000D5
:10002000000000000000000000000000257C000827
:10003000D91F000800000000CD720008717C000884
:100040006B0100086B0100086B010008C573000814
:100050006B0100086B0100086B0100086B010008D0
:100060006B0100086B0100086B010008F91E000815
:10007000051F0008111F00086B0100086B01000834
:100080006B0100086B0100086B0100086B010008A0
:1000900001AA00086B0100086B0100086B01000851
:1000A0006B0100086B0100086B0100086B01000880
:1000B0006B0100086B0100086B0100086B01000870
:1000C0006B0100086B0100086B0100086B01000860
:1000D000298A00086B0100086B0100086B01000809
:1000E0006B0100086B0100086B0100086B01000840
:1000F000E16A0008E56A0008C96100086B010008B0
:100100006B0100086B0100086B0100086B0100081F
:100110006B0100086B0100086B0100086B0100080F
:100120006B0100086B0100086B0100086B010008FF
:100130006B0100086B0100086B010008DFF80CD0B0
:1001400000F0D6FA00480047C1B80008603400202B
:100150000648804706480047FEE7FEE7FEE7FEE761
:10016000FEE7FEE7FEE7FEE7FEE7FEE73D7D00086F
:100170003D0100082DE9F05F0546002092469B46B0
:1001800088460646814640241BE0284641464746AD
:10019000224600F0FAF853465A46C01A914110D34D
:1001A00011461846224600F0E1F82D1A67EB0108C7
:1001B0004F4622460120002100F0D8F817EB000935
:1001C0004E41201EA4F10104DFDC484631462A4698
:1001D0004346BDE8F09F40EA01039B0703D009E0D6
:1001E00008C9121F08C0042AFAD203E011F8013B23
:1001F00000F8013B521EF9D27047D2B201E000F87C
:10020000012B491EFBD270470022F6E710B51346BA
:100210000A4604461946FFF7F0FF204610BD421C6F
:1002200010F8011B0029FBD1801A70470022CBB2C5
:100230000178994200D10246401C0029F8D11046AD
:1002400070472DE9FE4F81EA030404F0004421F0D9
:10025000004100944FF0000B23F0004350EA0104EA
:100260005ED052EA03045BD0C3F30A54C1F30A55CB
:100270002C44A4F2F3340194A0FB0254C1F3130103
:1002800041F48011C3F3130343F4801301FB0244D0
:1002900000FB034E840A970A44EA815447EA8357D5
:1002A000A4FB076802958D0A05FB07854FEA932C8E
:1002B00004FB0C542705029D4FEA065847EA1637FF
:1002C000B5EB08056EEB070C870E920E47EA811717
:1002D00042EA8312A7FB0201B6EB0B0164EB0004B8
:1002E0002B0D43EA0C335E1844EB1C50DA465146A2
:1002F000E7FB0201C5F313044FEA0B3343EA14533F
:100300004FEA0432019C43EA0603A4F10C04029470
:10031000009CCDE900B400F057F803B0BDE8F08FC1
:1003200000200146F9E70EB540F233410291002169
:10033000CDE900110A460B4600F046F803B000BDB7
:1003400030B50B46014600202022012409E021FAA5
:1003500002F59D4205D303FA02F5491B04FA02F5A2
:100360002844151EA2F10102F1DC30BD202A04DB75
:10037000203A00FA02F1002070479140C2F12003B8
:1003800020FA03F3194390407047202A04DB203AF7
:1003900021FA02F00021704721FA02F3D040C2F1A5
:1003A0002002914008431946704710B5141E73F19E
:1003B000000408DA401C41F1000192185B411A4325
:1003C00001D120F0010010BD2DE9F04D92469B4671
:1003D00011B1B1FA81F202E0B0FA80F22032904617
:1003E000FFF7C4FF04460F4640EA0A0041EA0B014A
:1003F00053465A46084313D0114653EA010019D018
:10040000C8F140025046FFF7C0FF05460E46504671
:1004100059464246FFF7AAFF084305D0012004E0F1
:1004200020463946BDE8F08D0020054346EAE076D7
:100430002C4337430A986305E40AA0EB0800002226
:10044000FD0A44EA47540A3002D500200146E9E794
:10045000010510196941DDE9084500196941BDE848
:10046000F04DA2E72DE9FE4F804681EA0300C00F60
:100470000C46009021F0004123F00045B8EB02004B
:10048000A94105D24046214690461C460B460246ED
:1004900023F00040104347D0270DC7F30A00C3F3F1
:1004A0000A510290401A019040286BDAC3F31300FE
:1004B00040F4801B0098924620B10023D2EB030A3F
:1004C00063EB0B0B01985946C0F140025046FFF711
:1004D0004DFF06460D4650465946019A00F020F958
:1004E00010EB08006141002487EA115284EAE773A7
:1004F0001A4340D0009A62B3019A012A4FEA075288
:1005000015DC001B61EB02014FF0004202EA0752CA
:10051000CDE90042001C41F5801132462B46FFF721
:1005200053FF03B0BDE8F08F40462146F9E7001BBA
:1005300061EB0201001C41F5801300185B4120189B
:10054000A2F5001747EB030140EAD570B6196D41DB
:1005500011E06D084FEA360645EAC0754FEA0752CA
:10056000001B61EB0201001C41F5801149084FEAB4
:1005700030000019514132462B4603B0BDE8F04F20
:10058000FFF713BF0098012240000023D0EB0202C6
:1005900063EBE073009821464FEAE074B8EB00008B
:1005A00061EB0401E9E783F000435BE781F0004180
:1005B00058E72DE9F04D81EA030404F0004B21F0E7
:1005C000004514464FF0000A23F0004150EA0502AE
:1005D00020D054EA01021DD0C5F30A570246C5F3E4
:1005E0001303C1F31300C1F30A5640F4801543F41A
:1005F0008013A7EB0608101BD64608F2FD3873EBF4
:10060000050002D308F1010801E092185B41B8F13E
:10061000000F03DA00200146BDE8F08D00204FF402
:100620008011064684460EE0171B73EB050705D3C1
:10063000121B63EB050306434CEA010C49084FEA21
:10064000300092185B4150EA0107EDD152EA0300F5
:1006500012D082EA040083EA0501084305D0101B8A
:10066000AB4106D20122002306E000224FF00043F6
:1006700002E06FF0010253101AEB06004CEB085138
:1006800010EB0A0041EB0B01BDE8F04DFFF78DBE0A
:10069000C1F30A52C1F3130140F2FF3341F4801158
:1006A0009A4202DA00200146704740F233439A42F0
:1006B000A2F2334202DC5242FFF767BEFFF756BE9A
:1006C00030B5041E71F1000404DB4FF000444042D9
:1006D00064EB0101141E73F1000405DB1C464FF0AE
:1006E0000043524263EB0403994208BF904230BD7D
:1006F0001CB509480090094801900546009C06E099
:10070000E06840F0010394E8070098471034AC42D9
:10071000F6D3FFF717FD00002CD300085CD30008C8
:10072000202A06DBCB17203A41FA02F043EAE073B5
:1007300006E041FA02F3D040C2F1200291400843A2
:100740001946704730B58C1810F8012B12F00F03C2
:1007500001D110F8013B120906D110F8012B03E07A
:1007600010F8015B01F8015B5B1EF9D101E001F8B3
:10077000013B521EFBD1A142E6D3002030BD000058
:100780000146806A436D426D13F0500F08D0D206C7
:1007900048BF01F049BEC06C426B0846104700BF1D
:1007A00042F40071416501680B68CA681B0703D4F5
:1007B000910707D501F034BE12F4406FFAD1C96831
:1007C0008904F7D4416D21F480714165416DC904FC
:1007D00048BF01F025BE416D41F00101416501F0C6
:1007E0001FBE0000806A416D41F040014165816D8E
:1007F00041F00401816501F017BE0000806A01F03C
:1008000011BE0000B0B5016804468A688868C00758
:100810004FF0000031D012F0020218BFB0BD88685E
:1008200000F00D0001281FD188684FF6C072C7F68E
:10083000FF721040023088600320086002F080FAE6
:1008400021688968C90704BF0020B0BD054602E0E1
:100850008068C00712D002F073FA411B2068032998
:10086000F6D38168C907F3D0606D40F01000606571
:10087000A06D40F00100A0650120B0BD0020B0BD1A
:1008800070B582B004460020019021688A68D207C2
:1008900011D14FF6C076C7F6FF76886806F17F0261
:1008A00010420BD0606D40F010006065A06D40F00C
:1008B0000100A065012002B070BD00BF8868304013
:1008C00040F00100886040F20830C5F20400006882
:1008D000000215D402F034FA054604E002F030FAC2
:1008E000401B0328DED220680168C90736D1816821
:1008F000C907F3D18168314041F001018160EDE722
:1009000040F24000C2F20000006842F663518009E4
:10091000C0F23E51A0FB0101012000EB91100190BB
:1009200001980028D6D000BF0198013801900198A5
:100930000028CFD001980138019001980028C9D033
:1009400001980138019001980028C3D0019801381E
:10095000019001980028E7D1BCE700BF002002B059
:1009600070BD000010B588B04CF21050C0F6000009
:1009700090E80E5044690191018B807E02920393AE
:10098000CDF810C0CDF814E00694ADF81C108DF829
:100990001E0007F0C5FA01A806F028FE08B010BD39
:1009A00080B501F00DFF01F015FF40F69000C5F68F
:1009B0000000016841F480310160BDE8804001F031
:1009C000C7BA0000704700002DE9F04188B04768C1
:1009D0000446B7F80B00A0F51240072800F2E081AA
:1009E000DFE810F00800D2002201DE015601740198
:1009F0008E01AA01684606F007FE4CF65226C0F6A4
:100A00000006304601F092FA4CF641274CF6962546
:100A1000C0F60007C0F60005014638462A4640F2F7
:100A20006B130BF0D1F89DF800109DF801209DF894
:100A300002304CF2CE70C0F600000BF0C5F8304624
:100A400001F074FA014638462A464FF4B6730BF0AB
:100A5000BBF89DF804104CF29C70C0F600000BF03F
:100A6000B3F8304601F062FA014638462A4640F2B1
:100A70006D130BF0A9F89DF80A109DF80B209DF856
:100A80000C304CF2B870C0F600000BF09DF8304608
:100A900001F04CFA014638462A4640F26F130BF03B
:100AA00093F84CF64910C0F600000BF08DF8606822
:100AB0000025407B06950128CDF81550CDF8115042
:100AC00000F05481002840F06F814CF65225C0F6AA
:100AD0000005284601F02AFA4CF641264CF66A2811
:100AE000C0F60006C0F6000801463046424640F215
:100AF000C5130BF069F84CF6B610C0F600000BF009
:100B0000F5FCFFF72FFF0F208DF810007F2042F239
:100B100000048DF81200CEF204042068070C284669
:100B200001F004FA01463046424640F2DD130BF074
:100B30004BF84CF62710C0F6000039460BF044F88D
:100B4000ADF81C70276828466FF31F3701F0EEF9E7
:100B50000146304642464FF4F1730BF035F84CF63F
:100B60000710C0F6000039460BF02EF804A8ADF8C7
:100B70001E7006F02DFD00F075F90120002109F02E
:100B8000F3FF08B0BDE8F0814CF65226C0F600062F
:100B9000304601F0CBF94CF64125C0F600054CF685
:100BA00096220146C0F6000228464FF4BA730BF0B5
:100BB0000BF84CF68500C0F600000BF005F86768EE
:100BC000304601F0B3F94CF68524C0F60004014626
:100BD000284622464FF4D3730AF0F6FF797B4CF691
:100BE000D700C0F600000AF0EFFF7F7B304601F02F
:100BF0009DF901464CF607204CF6D01640F2AF1393
:100C0000C0F60000C0F60006002F08BF40F2AB138C
:100C100008BF0646284622460AF0D6FF304608B0EE
:100C2000BDE8F0410BF062BC4CF65224C0F6000463
:100C3000204601F07BF94CF641254CF69626C0F68D
:100C40000005C0F6000601462846324640F27913F8
:100C50000AF0BAFF4CF66810C0F600000BF046FC34
:100C6000204601F063F90146284632464FF4BE7330
:100C70000AF0AAFFD7F80D10D7F811204CF2F27045
:100C8000C0F6000008B0BDE8F0410AF09DBF00BF0B
:100C90004CF65220C0F6000001F048F901464CF62F
:100CA00041204CF69622C0F60000C0F6000240F249
:100CB00081130AF089FFD7F80D104CF61A00C0F620
:100CC000000008B0BDE8F0410AF07EBF4CF65220AB
:100CD000C0F6000001F02AF901464CF641204CF61E
:100CE0009622C0F60000C0F6000240F285130AF01A
:100CF0006BFF53A008B0BDE8F0410AF065BF00BF2C
:100D00004CF65220C0F6000001F010F901464CF6F6
:100D100041204CF69622C0F60000C0F600024FF4C7
:100D2000C5730AF051FFD7F80D1036A008B0BDE822
:100D3000F0410AF049BF00BF4CF65220C0F6000057
:100D400001F0F4F801464CF641204CF69622C0F62C
:100D50000000C0F600024FF4C7730AF035FF20A070
:100D600008B0BDE8F0410AF02FBF00BF4CF652209A
:100D7000C0F6000001F0DAF801464CF641204CF6CE
:100D80006A22C0F60000C0F6000240F2EF130AF03B
:100D90001BFF4CF6A600C0F600000AF015FF2570F8
:100DA00008B0BDE8F08100BF4CF65220C0F600004C
:100DB00001F0BCF801464CF641204CF66A22C0F620
:100DC0000000C0F600024FF4FB730AF0FDFE4CF683
:100DD0005300C0F600000AF0F7FE08B0BDE8F0814D
:100DE0003E3E3D3D20534843495F5355425F455683
:100DF000545F4E564D5F454E445F45524153450A40
:100E00000D0000003D3D3E3E534843495F5355426F
:100E10005F4556545F4E564D5F53544152545F45A3
:100E200052415345203A204E756D6265724F6653AC
:100E30006563746F7273203D20256C640A000000A6
:100E40003E3E3D3D20534843495F5355425F455622
:100E5000545F4E564D5F454E445F57524954450AC4
:100E60000D0000002DE9F04198B04CF22C50C0F676
:100E7000000090E88E00D0E904650DF1140ED0E971
:100E800006C48EE88E00CDE9096500F12007D0E99F
:100E90000C65008F8ECFADF84C0040F22800C2F2F6
:100EA0000300149041F6FD10C0F600000DF1340E61
:100EB000159041F615208EE88E00C0F6000014A9AA
:100EC000CDE90BC4119612950AF05AFB02200121BC
:100ED00009F04AFE4BF65102C0F600020220002142
:100EE00009F074FE05A806F065FBD8B104464DF282
:100EF0006310C0F6000001F019F801464CF64120DD
:100F00004DF2FB22C0F60000C0F600024FF4E07381
:100F10000AF05AFE0FF2947021460AF055FE01F0D5
:100F20005FF816E04DF26310C0F6000000F0FEFF1F
:100F300001464CF641204DF2FB22C0F60000C0F6FF
:100F400000024FF4E3730AF03FFE0FF298700AF0CC
:100F50003BFE0020ADF85A004DF26310C0F60000D1
:100F600000F0E4FF01464CF641204DF20832C0F695
:100F70000000C0F6000240F239330AF025FE4DF2BF
:100F8000D120C0F600000BF0B1FA0AF0CBFBD8B1CB
:100F900004464DF26310C0F6000000F0C7FF0146A2
:100FA0004CF641204DF20832C0F60000C0F60002B7
:100FB00040F242330AF008FE4CF6EA30C0F6000078
:100FC00021460AF001FE16E04DF26310C0F6000063
:100FD00000F0ACFF01464CF641204DF20832C0F65D
:100FE0000000C0F6000240F246330AF0EDFD0FF2B9
:100FF0001C700BF07BFA47F28051C1F6FF71086854
:1010000040F29C18421CC2F200080DD049684446C8
:1010100004F8030F000A6070080C0A0A2071080E19
:10102000A170E270607109E0002005F0EFFF4CF262
:101030008674C0F60004002818BF0446002006216C
:1010400022460AF037FAD8B105464DF26310C0F6D1
:10105000000000F06BFF01464CF641204DF20832D3
:10106000C0F60000C0F600024FF454730AF0ACFD65
:101070004CF6A820C0F6000029460AF0A5FD34E091
:101080004DF26315C0F60005284600F04FFF4CF600
:1010900041264DF20837C0F60006C0F600070146AB
:1010A00030463A464FF455730AF08EFD4DF28F00EC
:1010B000C0F600000BF01AFA284600F037FF014690
:1010C00030463A4640F255330AF07EFD6078A67805
:1010D000617922792778E378CDE900604CF6BF503A
:1010E000C0F6000002970AF06FFD607940F212111D
:1010F000C2F20001087220794CF270724872E078F6
:10110000C0F600028872A078C872607808732078F0
:101110004873182010210AF0CDF9D8B104464DF2D9
:101120006310C0F6000000F001FF01464CF64120BC
:101130004DF20832C0F60000C0F600024FF46C73A6
:101140000AF042FD4CF65730C0F6000021460AF086
:101150003BFD18E04DF26310C0F6000000F0E6FE23
:1011600001464CF641204DF20832C0F60000C0F6B0
:1011700000024FF46D730AF027FD4DF21E10C0F609
:1011800000000BF0B3F94CF26072C0F600020820C8
:1011900010210AF08FF9D8B104464DF26310C0F661
:1011A000000000F0C3FE01464CF641204DF208322B
:1011B000C0F60000C0F6000240F2BD330AF004FDA4
:1011C0004CF60230C0F6000021460AF0FDFC18E0A3
:1011D0004DF26310C0F6000000F0A8FE01464CF688
:1011E00041204DF20832C0F60000C0F6000240F285
:1011F000C1330AF0E9FC4DF2D900C0F600000BF053
:1012000075F9012019210AF02DF9C8B304464DF2F1
:101210006310C0F6000000F089FE01464CF6412044
:101220004DF20832C0F60000C0F6000240F2CA33A8
:101230000AF0CAFC4CF6AC30C0F6000021460AF0B9
:10124000C3FC0AF095F8C0B304464DF26310C0F633
:10125000000000F06BFE01464CF641204DF20832D2
:10126000C0F60000C0F6000240F2D7330AF0ACFC32
:101270004CF64740C0F6000021460AF0A5FC35E0D8
:101280004DF26310C0F6000000F050FE01464CF62F
:1012900041204DF20832C0F60000C0F6000240F2D4
:1012A000CE330AF091FC4DF27F10C0F600000BF037
:1012B0001DF90AF05DF80028C6D14DF26310C0F6A2
:1012C000000000F033FE01464CF641204DF208329A
:1012D000C0F60000C0F6000240F2DB330AF074FCF6
:1012E0004DF2CD10C0F600000BF000F917AF0DF174
:1012F0005E0614AB012000210722CDE9006709F04A
:10130000E5FDD8B104464DF26310C0F6000000F0D0
:101310000DFE01464CF641204DF20832C0F60000A9
:10132000C0F6000240F2FB330AF04EFC4CF61740C8
:10133000C0F6000021460AF047FC18E04DF26310A9
:10134000C0F6000000F0F2FD01464CF641204DF2DF
:101350000832C0F60000C0F6000240F2FF330AF087
:1013600033FC4DF2AD10C0F600000BF0BFF8BDF835
:101370005000BDF85E10EDA70022052300970AF08B
:1013800017F8BDF85000BDF85C100DF15A070022A7
:10139000022300970AF00CF80020022102220AF032
:1013A00087F9D8B104464DF26310C0F6000000F092
:1013B000BDFD01464CF641204DF20832C0F600005A
:1013C000C0F6000240F221430AF0FEFB4CF6015049
:1013D000C0F6000021460AF0F7FB18E04DF263105A
:1013E000C0F6000000F0A2FD01464CF641204DF28F
:1013F0000832C0F60000C0F6000240F225430AF0B1
:10140000E3FB4DF25720C0F600000BF06FF840F2FE
:101410004425C2F200050120287009F02BFED8B146
:1014200004464DF26310C0F6000000F07FFD014657
:101430004CF641204DF20832C0F60000C0F6000222
:1014400040F22F430AF0C0FB4CF63B50C0F60000C0
:1014500021460AF0B9FB18E04DF26310C0F6000017
:1014600000F064FD01464CF641204DF20832C0F612
:101470000000C0F6000240F233430AF0A5FB4DF233
:101480008120C0F600000BF031F840F20110C0F6E8
:1014900000004BF20721C5F801001020C0F2010145
:1014A000002708226871A960CDE90020CDE902710A
:1014B0000120012101220023049709F04FFDE8B12A
:1014C00004464DF26310C0F6000000F02FFD014607
:1014D0004CF641204DF20832C0F60000C0F6000282
:1014E00040F24E430AF070FB4CF67840C0F6000024
:1014F00021460AF069FBA878D8B952E04DF2631092
:10150000C0F6000000F012FD01464CF641204DF2FD
:101510000832C0F60000C0F6000240F252430AF062
:1015200053FB4DF2EE10C0F600000AF0DFFFA87882
:10153000B8B309F0ABFCD8B104464DF26310C0F665
:10154000000000F0F3FC01464CF641204DF2083259
:10155000C0F60000C0F6000240F25D430AF034FB22
:101560004CF6C240C0F6000021460AF02DFB18E000
:101570004DF26310C0F6000000F0D8FC01464CF6B6
:1015800041204DF20832C0F60000C0F6000240F2E1
:1015900061430AF019FB4DF22820C0F600000AF062
:1015A000A5FF4DF26310C0F6000000F0BFFC01463D
:1015B0004CF641204DF20832C0F60000C0F60002A1
:1015C00040F264430AF000FB4CF61570C0F60000D0
:1015D0000AF0FAFA06F0B8FA002085F880004FF613
:1015E000FF7041F23572E882C0F60002012000214E
:1015F00009F0ECFA062009F00FFFD8B104464DF2CD
:101600006310C0F6000000F091FC01464CF641204A
:101610004DF2FB22C0F60000C0F600024FF4F67354
:101620000AF0D2FA4CF69C60C0F6000021460AF09F
:10163000CBFA18E04DF26310C0F6000000F076FC23
:1016400001464CF641204DF2FB22C0F60000C0F6E8
:1016500000024FF4F8730AF0B7FA4CF6E060C0F6F7
:1016600000000AF0B1FA05F00FFD41F6190305F18B
:101670008101C0F6000300200022002404F00AFFCC
:1016800047F66D4305F18201C0F6000300200022F9
:1016900004F000FF01202C8388F8000088F8020085
:1016A00000F0BEF818B0BDE8F08100BF2020466110
:1016B000696C2020203A20534843495F43325F42FF
:1016C0004C455F496E697420636F6D6D616E642C6B
:1016D00020726573756C743A203078253032780A40
:1016E0000D0000002020537563636573733A205327
:1016F0004843495F43325F424C455F496E697420FD
:10170000636F6D6D616E640A0D00000020205375DB
:1017100063636573733A206863695F7265736574A8
:1017200020636F6D6D616E6400000000576541635A
:1017300074000000B0B540F24425C2F2000595F8EF
:101740008000052808BFB0BD09F0B8FC04460020A1
:1017500085F880004DF26310C0F6000000F0E6FB53
:1017600001468CB14CF641204DF2AE22C0F600008D
:10177000C0F6000240F209530AF026FA14A0BDE8B0
:10178000B0400AF021BA00BF4CF641244DF2AE251C
:10179000C0F60004C0F6000520462A4640F20D536C
:1017A0000AF012FA13A00AF00FFA4DF26310C0F615
:1017B000000000F0BBFB014620462A4640F20E53D3
:1017C0000AF002FA0DA0BDE8B0400AF0FDB900BF72
:1017D0002A2A2053544F50204144564552544953CD
:1017E000494E47202A2A20204661696C6564200DF5
:1017F0000A0D000020200D0A0D0000002A2A2053A7
:10180000544F50204144564552544953494E472065
:101810002A2A20200D0A0D000120002109F0F2BA29
:10182000F0B587B040F29C1040F24427C2F20000AD
:10183000C2F200070478857897F8810005F098F8DF
:101840000120397E4CF2807287F88000002607F173
:101850001900C0F600020623002CCDE90063CDE993
:101860000221CDE9040618BF8024002D18BFA02551
:10187000002021462A460023069609F0ABFBC8B19A
:1018800004464DF26310C0F6000000F04FFB014625
:101890004CF641204DF21E32C0F60000C0F60002A8
:1018A00040F29C430AF090F931A021460AF08CF9ED
:1018B00016E000BF4DF26310C0F6000000F036FBEA
:1018C00001464CF641204DF21E32C0F60000C0F633
:1018D00000024FF494630AF077F933A00AF006FE91
:1018E00040F21211C2F200010E2009F007FCE8B12B
:1018F00004464DF26310C0F6000000F017FB0146ED
:101900004CF641204DF21E32C0F60000C0F6000237
:1019100040F2A9430AF058F94CF64760C0F60000BF
:10192000214607B0BDE8F0400AF04EB94DF2631011
:10193000C0F6000000F0FAFA01464CF641204DF2E4
:101940001E32C0F60000C0F6000240F2B4430AF0B6
:101950003BF91FA00AF038F997F881004EF24601D2
:10196000C0F2010107B0BDE8F04004F0EFBE00BFD7
:101970003D3D3E3E206163695F6761705F736574E2
:101980005F646973636F76657261626C65202D2098
:101990006661696C2C20726573756C743A203078BE
:1019A0002578200A000000003D3D3E3E206163692D
:1019B0005F6761705F7365745F646973636F766599
:1019C0007261626C65202D205375636365737300CB
:1019D0003D3D3E3E20537563636573733A205374F7
:1019E0006172742046617374204164766572746913
:1019F00073696E67200A0D0070470000012805D04A
:101A0000002818BF7047032009F0CCB8032009F064
:101A100009B9000010B504464068083006F0D6F851
:101A2000002818BF0120207010BD00007047000082
:101A300070470000FEE7000000207047002070475C
:101A400010B542F62C04C2F2000441F69C71C2F2B9
:101A500000012046002207F0CDFA41F29C71C2F24B
:101A60000001204607F0B8FA002010BD10B542F67C
:101A70002C04C2F200040146204607F0ADFA2046CD
:101A800007F0CCF9002010BD0020704742F62C0270
:101A9000C2F20002D2F8BC22D2F81432002B1CBFD2
:101AA0000120704710B542F62C04C2F200040A4629
:101AB0000146204607F09EFA2046BDE8104007F098
:101AC00021BB0000704700002DE9F04F83B00446B1
:101AD000D0E904C09946238990460F4680B17BB96E
:101AE000D4E900160CF10102961B11F80C5038BF16
:101AF0001646895D45EA012101F1020B04E000BFB1
:101B00008346002818BF9B46E168002B18BF984603
:101B10008C4509D2B3FA83F1490908EB410A4D001B
:101B20000AFB09F100230EE0B3FA83F14A09616868
:101B30001CFA8BF308EB420ACB1A0AFB09F1994213
:101B40004FEA420512D3B3FBFAF202FB1A32D3B2C8
:101B5000AB420BD9267FB2074FBF2B4606F00102DE
:101B600052421340B8F1000F04D108E00023B8F14D
:101B7000000F04D00A1861681A448A4204D9002070
:101B800003B0BDE8F08F00BFB9F1000F00F0AE80E8
:101B90004FEA18210022019502911FE020682A4691
:101BA00008443946FEF717FB6069A8EB0506284490
:101BB00060610021D34646B1206832460844791955
:101BC000FEF709FB606930446061A1694744013157
:101BD000B9F101092A46A16100F084802169636896
:101BE00011FA8BF62589F11A38BF314621619DB96A
:101BF000206800F80180D4E900030131CB1A38BF16
:101C00000B4602995E1CC15463686069F11A00F1C9
:101C1000020038BF314660615B1A4345454638BF14
:101C20001D469845BAD9237F002BB7D035B3DE07C0
:101C300026D19B072DD520890028A0D120682A0A0B
:101C4000084400F8025C2068084400F8012C206871
:101C50002A4608443946FEF7BEFAD4E9050122684F
:101C60002844A8EB05030131C4E90501137020687D
:101C7000190A417060690221023007E01546A4E7A5
:101C800022898AB128440021434600252A461D4660
:101C90006061019B2E4605EB030B00231546236173
:101CA000002E7FF489AF90E72068FF22084400F8F7
:101CB000022C2068084400F8012C6069218928441E
:101CC000606119B1002145460022E2E720680299CF
:101CD00080F8008020680025417060690221023090
:101CE0004346D3E76168D4F810C0019D20680CEB2F
:101CF0000502511A38BF1146084403B0BDE8F08F01
:101D000080B5DDF808E084460020CCE90300CCE98A
:101D100005000EF00200CCE90012ACF80830002BF0
:101D200018BF012303EA500040428CF81CE080BD3C
:101D3000D0F814C0BCF1000F16D0F0B502891346DC
:101D4000B2B1057F05F00305012D22D14FF6FF75D5
:101D5000AB4241D1002A55D0D0E903E4A64541D891
:101D60004FF6FF7317E000BF002200232FE000BFF3
:101D7000D0E90035C46813F804E00134651B38BFAE
:101D800025465B5D4EEA0323057F05F00305012D23
:101D9000DCD0D0F80CE0B2FA82F25509D0E9002488
:101DA0000EEB4506371B38BF374603EB45053A4473
:101DB000BCEB0507476105D005EB0E073E1B38BF9E
:101DC0003E46C6608769013F8761BDE8F040104626
:101DD000002918BF0B807047D0E903E4A645DAD983
:101DE000002AD8D04468A4EB0E059542D3D2ACEBC0
:101DF000040303EB0E0C4FF0000EC0F80CE013468A
:101E0000C9E700BFD0E90034D0F80CE0ACEB040522
:101E100005EB0E0C4FF0000EC0F814C0C0F80CE03B
:101E2000C4F101061D78012C88BF01269B5D45EA9F
:101E30000323B0E742695AB170B50289C36894467A
:101E400072B1067F06F00306012E1BD042E000BFF0
:101E500000204FF0000C002918BFA1F800C0704707
:101E6000D0E900CE5D1CB5EB0E041CF8036038BF52
:101E70002C461CF8045046EA052C067F06F00306A3
:101E8000012E27D14FF6FF761FFA8CF5B54205D00B
:101E90000669B3421ED92AB91CE000BF52B10669D7
:101EA000B34215D94668F61A96423CBF94460023C1
:101EB00010E000BFD0E90036C6F101041D78012E04
:101EC00088BF01241B5D45EA032C002302E000BF0C
:101ED0004FF6FF7C002AD0E9000208BF02339A1AAD
:101EE00038BF1A461044BDE87040002918BFA1F859
:101EF00000C070477047000042F6CC30C2F20000CC
:101F000000F0EABC42F62C40C2F2000000F0E4BC53
:101F100042F66C30C2F2000000F0DEBC04F0F2BF0A
:101F200013460A460146002004F0BABD10B55C21F4
:101F30000446FEF77BF900281CBF013010BD204687
:101F40002F21FEF773F9002818BF441C204610BD4E
:101F500080B582B0FFF7E2FF40F2D42040F2F421D6
:101F60004FF0020CC2F20000C2F200014FF48052A6
:101F70000023CDF800C0FFF7C3FE02B080BD000013
:101F800070B582B040F2D424EFF31086EFF31080E6
:101F900072B6C2F200040DF1060520462946FFF78D
:101FA000C7FE20462946FFF745FF58B186F3108843
:101FB000BDF8061041F68172C0F60002FFF7B0FFCF
:101FC00002B070BD40F23C00C2F20000012101707D
:101FD00086F3108802B070BD7047000070470000A3
:101FE000EFF3108072B600BFFEE70000B0B582B01C
:101FF00004460020019094F85000012802D10220EC
:1020000002B0B0BD012084F8500020460D46FEF716
:10201000F9FB616D10B141F010014BE041F2021289
:1020200091430231616521684FF6C073D1F808C051
:10203000C3F6FF7303EA0C0305F0804546F6AA22B7
:102040002B44C0F2020203F100438B608B68B3F1B2
:10205000FF3F2BDC019B01330193019B93421DD871
:102060008B68B3F1FF3F21DC019B01330193019B9E
:10207000934213D88B68B3F1FF3F17DC019B013308
:102080000193019B934209D88B68B3F1FF3F0DDCAC
:10209000019B01330193019B9342D7D9606D40F0BE
:1020A000100020F00201012004E000BF616D012258
:1020B00062F301016165002184F8501002B0B0BDE7
:1020C0002DE9F04181B00022009290F85020012AC1
:1020D00004D10221084601B0BDE8F0810123076860
:1020E00080F85030BB685B0700F13281D1E90035E0
:1020F0001F26C5F3012407EB8404226B05F01F059E
:10210000AE40C3F38463B243AB401A432263BA6860
:10211000BB6802F0040203F00803D21873D10A6806
:102120008B68C2F3406607EB86067569C2F30452FA
:1021300007249440A54303FA02F22A437261D1E9CD
:102140000435FC68042B63D13A6E3A6E0B68C2F317
:10215000846293FAA3F6C3F3846C6FF3DF43B6FA99
:1021600086F5002B2C464FF6FF7E08BF6446A24240
:10217000C0F2070E0CD13A6E22F000423A660A68AD
:1021800002EA0E03C2F3846C92FAA2F2B2FA82F56A
:102190007A6E7A6E002BC2F384622C4608BF6446C6
:1021A000A2420CD17A6E22F000427A660A6802EAF4
:1021B0000E03C2F3846C92FAA2F2B2FA82F5BA6EFE
:1021C000BA6E002BC2F384622C4608BF6446A2425A
:1021D0000CD1BA6E22F00042BA660A6802EA0E0317
:1021E000C2F3846C92FAA2F2B2FA82F5FA6EFA6E37
:1021F000002BC2F3846208BF6546AA4203D1FA6E7F
:1022000022F00042FA66BA68D20740F0AB8018E0CC
:10221000062202EA94020E6807EB830305FA02F233
:102220001D6E4FF20004C0F2FF3406F0F846254060
:1022300032432A4342F000421A66BA68D20740F09D
:102240009180D1F80080CA684FF6FF75D7F8B0606A
:10225000434602F01804C0F207056FF3DF43E54080
:102260009E4305EA08052E430025C4F27F05AA42D5
:10227000C7F8B06037D18BB198FAA8F2B2FA82F2FF
:10228000013202F01E03092B02F01F030FD80122B6
:102290009A4003EB430342EA035314E0012202EBAA
:1022A000986202F01E030A2B02F01F03EFD30122F3
:1022B00000269A4003EB4303CFF6206606EB035358
:1022C0001A4342F00073C3F3406607EB86068A6840
:1022D0007569C3F3045307249C40A5439A402A43DD
:1022E0007261D1F800800021C8F2080118EA010FDC
:1022F00038D040F2083E4FF60051C5F2040ECFF63A
:10230000FF71DEF800405EF80110C90720D10021FE
:10231000CCF25271884504F0E07C08BF14F400014F
:102320001CD00021CCF68431884523D10021B1EBAB
:102330001C6F1FD1AEF542718F4213D1DEF8001031
:1023400021F0E07141EA0C0141F0807128E000BF0A
:10235000416D41F020014165012104E0AEF542717B
:102360008F4221D00021002280F85020084601B081
:10237000BDE8F081AEF542718F424FF00001F2D11D
:102380000122C8F20002904508BF14F48002EAD18D
:10239000DEF8001021F0E07141EA0C0141F4800107
:1023A000CEF800100021DEE7DEF8001042F663529E
:1023B00021F0E07141EA0C0141F40001CEF8001077
:1023C00040F24001C2F200010968C0F23E528909A0
:1023D000A1FB0212910901EB41010C2202EB8101E8
:1023E000009100990029BDD0009901390091009910
:1023F0000029B7D000990139009100990029B1D086
:1024000000990139009100990029ABD00099013958
:102410000091009900294FF00001E5D1A3E70000E9
:10242000704700007047000070470000B0B582B0F0
:102430000446002001904CB1606D58B12168886855
:10244000800012D48868C00019D54CE0012002B089
:10245000B0BD00BF204600F0E9F80020A06584F878
:102460005000216888688000ECD588684FF6C072FB
:10247000C5F6FF72104088608868C00033D44FF6FC
:10248000C0728868C5F6FF7202F18052104000F1F8
:102490008050886040F24000C2F20000006842F6BE
:1024A00063528009C0F23E52A0FB02029009022250
:1024B00002EB400001900198A8B100BF01980138DB
:1024C0000190019878B1019801380190019850B1BC
:1024D000019801380190019828B1019801380190C4
:1024E00001980028EAD18868C00009D4606D40F0E6
:1024F00010006065A06D40F00100A065012000E0C3
:1025000000208A68636D02F0040203F01003D21801
:10251000626D71D122F48172023262658A68D207DB
:1025200012D140F208324FF60053C5F20402CFF642
:10253000FF73D358DB0707D1D4F804C0136823F422
:102540007C1343EA0C03136094F819E0636BD4E93D
:1025500002C243EA4E331A4394F8203042EA0C0296
:10256000012B42EA034207D1D4F824C00023CFF65E
:10257000FE7303EB4C431A43A36A33B1D4F82CC067
:1025800003F4707343EA0C031A43D1F80CC04CF205
:102590000703CFF6F07303EA0C031A43CA608A6894
:1025A0008B6802F0040203F00803D2182DD194F8CE
:1025B0003030227E5B0094F838C043EA823ECB681C
:1025C00044F2020223EA020242EA0E02CA600A69E7
:1025D000BCF1010F16D140F2FD7322EA030CD4E9DD
:1025E0000F32D4E911E543EA0C031A4342EA0E0222
:1025F0002A4342F0010207E042F010010120616528
:1026000002B0B0BD22F001020A6122690B6B012AFF
:1026100023F00F0202D1E369013B1A430A63616DA3
:10262000012262F30101616502B0B0BD2DE9F04104
:102630009AB004460020CDE91700684618303821CA
:10264000FDF7E2FD20680021C5F20401884203D0B5
:102650001AB0BDE8F08100BF082001904FF40030AF
:1026600002904FF0007003904FF0005004904FF034
:1026700080504FF4806805900F906846CDF8008038
:1026800001F0CEFC002818BFFFF7AAFC4C20C5F6CD
:1026900000000168002741F400510160016801F465
:1026A000005119911999016841F001010160006818
:1026B00014A900F00100199019980120149003202A
:1026C00015904FF09040169700F066FA42F66C3580
:1026D0003020C2F20005C4F20200052180224FF42E
:1026E0008073202685E883002846C5E90372C5E982
:1026F0000538C5E9076700F045F9002818BFFFF75E
:102700006FFCE564AC621AB0BDE8F08170B50446B8
:1027100000688068400703D494F85000012801D174
:10272000022070BD012084F85000204615460E4658
:10273000FEF7A6F820B1002084F85000012070BDFB
:10274000606D40F60171884300F580706065606DD2
:1027500040F28173C0044FF0000044BFA06D20F030
:102760000600A065E06C40F2FD712268C0F600032F
:10277000C0F6000140F2E57E4FF0000CC0F6000EFE
:10278000C0E90B311C21C0F834E0116084F850C05E
:1027900051682B4641F010015160D16841F00101B0
:1027A000D16002F14001324600F082F921684FF613
:1027B000C0738A68C7F6FF731A4004328A6070BD1E
:1027C00042F20400CEF20400016841F00101016010
:1027D0007047000042F20400CEF20400016841F0AC
:1027E0000201016070470000002804BF012070470B
:1027F00090F8251002292DD180B50168D0E910CEBE
:10280000826C0B6823F00E030B60136823F4807353
:1028100013600A6822F001020A600EF01C02012116
:1028200001FA02F2CCF80420D0E913325A60426D6A
:1028300032B1136823F480731360D0E91623536018
:1028400080F825100021BDE88040002280F8242077
:10285000084670470421C1630121002280F824202A
:102860000846704790F82510022931D180B50168DB
:10287000D0E910CE826C0B6823F00E030B600B685E
:1028800023F001030B60116821F4807111600EF0D8
:102890001C02012101FA02F2CCF80420D0E9133223
:1028A0005A60426D32B1136823F480731360D0E92B
:1028B0001623536080F82510826B002180F82410C5
:1028C0000AB190470021BDE880400846704700BF2C
:1028D0000421C16301207047B0B5D0E910C302687C
:1028E000DCF8001003F01C030424D2F800E09C4044
:1028F0000C4218BF1EF0040522D102249C400C4259
:1029000018BF1EF0020529D1D940090724D51EF0B1
:10291000080108BFB0BD116821F00E01116001214E
:1029200001FA03F2CCF80420C16380F82510416B52
:10293000002280F8242079B1BDE8B040084700BFEC
:102940001168890603D4116821F004011160CCF8E4
:102950000440016B0029EFD1B0BD00BF11688906AA
:1029600006D4116821F00A011160012180F82510B8
:10297000CCF80440C16A0022002980F82420DBD171
:10298000EAE700002DE9F04F00284FF0010800F0C1
:102990008B800027C4F2020702684FF6F83407F56F
:1029A0008169CBF6FD744A4538BF04F580644CF666
:1029B000CD4E1444CCF6CC4EA4FB0E5102F0FC05D7
:1029C000A5F1080540F68406A5FB0E5AC4F20206DE
:1029D00007F580636FF00304D0E9025CD0F810B013
:1029E0003CBF0023C4F20203683E04EA91044A4556
:1029F00038BF07F50066C0E91034022380F825309F
:102A0000136847F6F077BB43D0E9057143EA0C033E
:102A100043EA0B03D0E9079E3B43194341EA09010E
:102A200040F6840C41EA0E01C4F2020C2943116005
:102A3000ACF10401C164CAF30411321908FA01F3BC
:102A4000B5F5804F8264036506D1002141601160B5
:102A5000CCF800301AE000BF416801F03F040139B2
:102A600003294FF000011460CCF800300ED8621E2C
:102A70000CEB820747F87C1F02F0030101228A4019
:102A80000CF1BC033946CCF8C02001E00023002241
:102A9000C0E915134FF000080121C265C0F83C8061
:102AA00080F8251080F824804046BDE8F08F0000B3
:102AB00090F824C0BCF1010F47D04FF0010C80F812
:102AC00024C090F825C0BCF1010F3BD12DE9F041A5
:102AD0004FF0020C80F825C04FF0000CC0F83CC04D
:102AE000D0F800C000F14C0E9EE83040DCF80060E9
:102AF000BEF1000F26F00106CCF8006065601CBF37
:102B0000D0E916456560D0E91056012706F01C068D
:102B1000846807FA06F6D0F830806E60CCF804308E
:102B20000B46102C04BF13460A46CCF80830CCF8EC
:102B30000C20DCF80010B8F1000F09D041F00E01B4
:102B40000EE000BF002180F824100220704700BF73
:102B500021F00401CCF80010DCF8001041F00A016B
:102B6000CCF80010806C0168C90303D5016841F4FA
:102B700080710160BEF1000F05D0DEF8000040F466
:102B80008070CEF80000DCF8000040F00100CCF8C6
:102B900000000020BDE8F0812DE9F04F83B00E6801
:102BA0000290002E00F0C2800298019100F138439B
:102BB000870547EA932341F20007C4F6000707217F
:102BC000B84208BF0421042B38BF1946019B4FF0BF
:102BD000000E0025002400910AE000BF1E680134A9
:102BE00036FA04F105F102050EF1040E00F09E80A4
:102BF000012000FA04FA16EA0A00EFD0D3F80480A4
:102C0000032108F00309A9F1010701FA05FB012FCF
:102C10006FEA0B0C14D80299D1F808B0DA680BEA05
:102C20000C0BAA4042EA0B028A604A6822EA0A0AAE
:102C3000C8F30012A24042EA0A024A6008E000BF5C
:102C40000299B9F1030F03D14FF0030923E000BF4C
:102C5000CA689F6802EA0C02AF403A43B9F1020F1A
:102C6000CA6018D16FF0030202EA54020A44D2F893
:102C700020800EF01C070F26D3F810A006FA07F9E3
:102C800028EA09080AFA07F747EA08071762D3F89B
:102C9000048008F003090A6809FA05F702EA0C0241
:102CA0003A4318F4403F0A6098D040F2080824F0F4
:102CB0000302C4F201080EF00C070F2152F808C0FD
:102CC00001FA07F600992CEA060601FA07F73743DE
:102CD00040F6000142F80870C5F60001D1F800C0C6
:102CE0005F684CEA0006FA0258BF2CEA00060E6044
:102CF0004A68BB0242EA000658BF22EA00064E605C
:102D0000D1F88020FE0342EA000358BF22EA000304
:102D1000C1F88030D1F88420BF0342EA000358BFD5
:102D200022EA0003C1F88430019B57E703B0BDE8F5
:102D3000F08F00001823002A08BF2823C1507047D5
:102D400043F25C00C2F200000068704740F20C00E1
:102D5000C2F20000406870477047000041F2005125
:102D6000C5F60001C8680A6882430A604860FFF738
:102D7000F3BF0000002804BF0120704710B50446CF
:102D800090F8380010B9204600F028F840F60041CD
:102D9000C5F6000100204FF03F1208604A603F2254
:102DA0008A600A6842F001120A6042F62D61C0F69C
:102DB000000142F63162C0F60002C4E90111C4E923
:102DC0000311C4E905110121C4E90722C4E909225C
:102DD000C4E90B22606384F8381010BD5021C5F699
:102DE0000001006801F53B62904218BF704780B552
:102DF00082B00868002240F4801008600868022150
:102E000000F48010019001982C2000F0C3F82C20D1
:102E100000F09CF82D200221002200F0BBF82D20AC
:102E200002B0BDE8804000F091B80000704700009B
:102E30007047000040F20C0043F25C01C2F2000057
:102E4000C2F2000100780A68104408607047000070
:102E500080B544F20000C5F60000016841F48071BD
:102E60000160032000F0C2F80F2000F009F80028EC
:102E70001CBF012080BD00F027F8002080BD0000AD
:102E800070B540F20C06C2F200063178D1B10446AA
:102E900001F030FC31784FF47A72B2FBF1F1B0FB03
:102EA000F1F002F079FC0F2C4FF0010508D838B989
:102EB0004FF0FF3021460022002500F06BF87460CF
:102EC000284670BD012070BD80B582B05020C5F687
:102ED00000000168002241F4002101600068022125
:102EE00000F40020019001982E2000F053F82E20CD
:102EF00002B0BDE8804000F029B80000002848BFBB
:102F0000704700F01F01012202FA01F11C2202EABF
:102F1000D0004EF28022CEF20002815070470000B5
:102F2000002848BF704700F01F01012202FA01F19A
:102F30001C2202EAD0004EF28012CEF20002815032
:102F4000BFF34F8FBFF36F8F70470000002848BF5B
:102F5000704700F01F01012202FA01F11C2202EA6F
:102F6000D0004EF20012CEF20002815070470000F5
:102F7000002848BF704700F01F01012202FA01F14A
:102F80001C2202EAD0004EF20022CEF20002815052
:102F90007047000010B54EF60C5CCEF2000CDCF869
:102FA0000030C3F3022E8EF00704042C28BF042443
:102FB000BEF103034FF0FF3E0EFA04F438BF0023C6
:102FC000A14399400EFA03F39A43114300F00F0214
:102FD00000F160430901043A03F5644362440028A8
:102FE00048BF02F10C03197010BD00004EF60C51E1
:102FF000CEF200010A684FF6FF031A4060F30A227E
:1030000042F0806040F0FD70086070470122016866
:10301000C0F8D022002280F8C822B1F8540040F055
:103020000100A1F85400B1F8540040F00202002061
:10303000A1F854207047000010B50129044613D0B0
:1030400011BB607A48B104F015FE4EF61050CEF276
:103050000000016821F006010160D4F8D802BDE843
:10306000104006F0FFBA00BFD4F8D80206F080FB8B
:10307000607A002808BF10BD4EF61050CEF2000056
:10308000016841F00601016010BD000080B501F04B
:10309000070C0CEB8C0C00EBCC0C01EB810E0CF153
:1030A000100C00EBCE00090658BF00F5A87C0020EC
:1030B000002A19BFCCF808300121ACF806300021F5
:1030C0008CF80C1080BD000001EB8102D0F8D832E2
:1030D00000EBC200426A184606F07AB901EB8102A1
:1030E000D0F8D83200EBC200D0F86421184606F0C0
:1030F000CBB9000010B5044648B2B0F1FF3F01F073
:10310000070000EB800104EBC10205DD02F5A871A8
:10311000002382F8513103E0012302F110015374BE
:1031200094F890220870012A04BF022010BD206884
:10313000012284F8902206F053FF002084F89002C8
:1031400010BD0000B0B50446007901F00F028242C4
:1031500084BF0120B0BD48B2B0F1FF3F01F00700CD
:1031600000EB800104EBC10206DD02F5A87100232B
:1031700082F8513104E000BF012302F110015374C1
:1031800094F890220025012A8D70087004BF022057
:10319000B0BD2068012284F8902206F0B5FF2846D1
:1031A00084F89052B0BD000001F0070101EB8101ED
:1031B00000EBC100D0F86C017047000070B5064606
:1031C00048B2B0F1FF3F01F0070000EB800107DDDE
:1031D00006EBC10404F5A871002584F8515106E0FE
:1031E00006EBC10C01240CF110018CF811400870A1
:1031F0000A61022BCB7004BF0020087196F8900280
:10320000012804BF022070BD3068012286F8902298
:1032100006F0A4FD002086F8900270BD10B501F004
:10322000070C0CEB8C0100EBC10E00680EF5A871C9
:103230000024CEF86421CEF86831CEF86C418EF8C7
:1032400051418EF850C106F0B9FF002010BD0000BA
:1032500010B50279044601F00700904284BF0120B6
:1032600010BD4AB2B2F1FF3F0ADD01EB810104EB70
:10327000C10202F5A871002382F8513108E000BFB5
:1032800000EB800104EBC102012302F11001537431
:1032900094F890320122012B8A70087004BF02203A
:1032A00010BD206884F8902206F06EFF002084F89C
:1032B000900210BD80B501F0070C0CEB8C0100EB07
:1032C000C10101F810CF00684FF0010C01F11407A3
:1032D00081F824C04FF0000E87E80C400B6281F8A3
:1032E00001C006F06BFF002080BD00002DE9F04F0B
:1032F00081B00446006807F089FB010422D441052F
:1033000000F1F883410400F10784810400F11C847A
:10331000C10400F12384010500F14684010600F197
:103320005D84810500F16A84C00540F1F183206865
:10333000B0F8441021F48071A0F8441001B0BDE849
:10334000F08F00BF2068B0F94410B1F1FF3F00F3E7
:10335000DF8304F5267140F60F7B009123E000BF68
:10336000B0F8501094F85021014401EBC201B1F8BB
:103370000634B4F8562100996FF39F23C4F86C31DA
:1033800007F048FB2068018801EA0B0180310180C9
:10339000204600F0F7FD00BF2068B0F94410B1F1FD
:1033A000FF3F00F3B583B0F8442012F00F090DD0B1
:1033B00030F929104FEA490AB1F1FF3F1FFA81F8AD
:1033C0002EDD5FEA0860E7D560E100BF0188D20624
:1033D0006AD401EA0B0101F500410180B0F85010F8
:1033E000227C084400EBC200B0F80204616A6FF36B
:1033F0009F20E0620844606220460021FFF764FEDF
:10340000207B0028C8D0A06A0028C5D1207B216875
:1034100040F08000C0B2A1F84C0000202073BBE750
:1034200030F81A1040F60F7C01EA0B01803120F8C9
:103430001A1009EB890104EBC10B9BF85C110BF529
:10344000A876002900F082809BF85311022940F0F1
:103450008F80B0F850703178DBF8683107440BF595
:10346000B4725FEA484507EBC10700F19B80B7F8EB
:10347000067400256FF39F27DB1B38BF2B461360B4
:1034800040F2A6805FEA486200F1B28030F8212065
:1034900048F2C00302EA0C021A4320F82120002F50
:1034A00040F0A780CCE000BF0A053FF559AF09B254
:1034B000B1F1FF3F3FF770AF018801EA0B018031A6
:1034C0000180B0F8501094F85021014401EBC20182
:1034D000B1F806346FF39F23C4F86C3193B1D4F87C
:1034E000641179B1B4F8562107F094FAD4F8640164
:1034F000D4F86C110844C4F8640120460021FFF799
:10350000EDFD206801880A053FF546AF01F4405102
:10351000B1F5405F3FF440AFB0F8501000F2064202
:10352000535A6FF39F235352D4F860313F2BC0F0AE
:103530000782DE068E5A4FEA53174FF0FF3508BF59
:1035400005EB531746EA872379E200BFB0F8501025
:103550003278014401EBC201B1F806746FF39F2782
:10356000002F6DD0DBF86411BBF8562163E000BF7B
:10357000327848F2C00330F8221001EA0C011943F6
:1035800020F8221030F82230B0F8501000EBC202C0
:103590005B04114416D4B1F806746FF39F2747BB40
:1035A0004EE000BFB7F8027400256FF39F27DB1BC6
:1035B00038BF2B46136021D95FEA48622DD4B7BBD0
:1035C0003EE000BFB1F802746FF39F277FBB37E086
:1035D00030F8212043F60F731A404CF28003A3F514
:1035E00000535A4020F821205FEA48627FF54EAF31
:1035F00037B3DBF86411BBF85A211CE030F8212006
:1036000043F60F731A404CF28003A3F500535A405F
:1036100020F821205FEA4862D1D530F8212048F215
:10362000C00302EA0C021A4320F8212047B1DBF85C
:103630006411BBF858213B4607F0ECF901E000BFEC
:103640000027DBF86C11DBE9590239443844CBF828
:103650006C11CBF864011AB1DBF86001B8420BD9E8
:1036600031782046FFF73AFD40F60F7B5FEA0860AD
:103670007FF592AE0AE000BF2068314606F09EFD5D
:1036800040F60F7B5FEA08607FF586AE206809EBA5
:10369000890130F81A2004EBC10502EA0B0101F59B
:1036A000004120F81A10E97C05F11009012923D105
:1036B000297F00294FF00001A96200F03B815FEAF9
:1036C000486100F18780697C012900F01D81002993
:1036D00040F03081B0F8501099F80020084400EB19
:1036E000C200B0F806146FF39F21A0F80614B0F8DA
:1036F000061441F400410FE15FEAC8511ED4B0F84E
:10370000502099F80010024402EBC102B2F80224E2
:10371000AB6A6FF39F229B1A4FF0000738BF3B46FE
:10372000AB6240F20981696AEB6A114469629918D7
:10373000E962494606F042FD2EE600BFB0F850703F
:1037400099F800102A4652F8286F5FEA486300EBA8
:10375000C10C59D40CF2064E3EF8077000236FF3EB
:103760009F27F61B38BF1E46166040F285805FEA31
:10377000484208D430F821204CF2800302EA0B02C0
:103780001A4320F821202A4612F8341F012940F05C
:10379000A0812B4653F8308F53E904C153F8046CD1
:1037A00039443E44E04543F80C1C43F8046C80F077
:1037B000FF80B8F1000F00F059810027C4461F6058
:1037C00017706A7C012A40F0FA80B0F850202EF879
:1037D00002C071E1697C012900F0A280002940F05B
:1037E000A980B0F8501099F80020084400EBC200FE
:1037F000B0F802146FF39F21A0F80214B0F802147D
:1038000041F4004194E000BF0CF2024E3EF8077014
:1038100000236FF39F27F61B38BF1E4616604FD953
:103820005FEA484208D530F821204CF2800302EAD2
:103830000B021A4320F821202B4613F8341F0129CC
:1038400040F047812A4652F830CF52E9046152F8DD
:10385000048C3944B844B44542F80C1C42F8048C3A
:1038600080F0C8804FF00008BCF1000F83F80080A2
:1038700040F0C380BC46C2E06A7C012A6AD0002ABC
:1038800071D1B0F850206244B2F802346FF39F2334
:10389000A2F80234B2F8023443F40043A2F802342E
:1038A000B0F850003EF800206FF39F222EF8002061
:1038B0003EF8002042F400422EF8002053E000BF02
:1038C0006A7C012A56D0002A5DD1B0F850203EF81B
:1038D00002706FF39F272EF802703EF8027047F4D3
:1038E00000472EF80270B0F850006044B0F806248B
:1038F0006FF39F22A0F80624B0F8062442F4004299
:10390000A0F806243FE000BFB0F8501099F800205E
:10391000084400EBC2000021A0F806140AE000BF32
:10392000B0F8501099F80020084400EBC2000021C4
:10393000A0F8021499F800102046FFF7C5FB2BE50C
:10394000002B7BD003F00107565A07EB530346EADE
:10395000832379E0B0F850206244A2F80234B0F832
:1039600050002EF800302046FFF7AEFB5FEA4840DB
:1039700010D5AEE0B0F850202EF80230B0F850006C
:103980006044A0F806342046FFF79EFB5FEA4840FB
:1039900040F19F80206899F800104CF2800330F8C5
:1039A000212002EA0B021A4320F8212091E000BFF7
:1039B000A8EB0C021A606A7C012A3FF406AF002AC9
:1039C0007AD1B0F85070BCF13F0F3EF807206FF38A
:1039D0009F222EF8072051D35FEACC634FEA5C1296
:1039E0003EF807304FF0FF3608BF06EB5C1243EAA3
:1039F00082225DE0ACEB0608B446C2F800806A7C27
:103A0000012A2DD0002A5FD1B0F85070BCF13F0FD1
:103A10003EF807206FF39F222EF807203AD35FEA83
:103A2000CC634FEA5C123EF807304FF0FF3608BF18
:103A300006EB5C1243EA822242E000BF535A48F28E
:103A40000007CFF6FF773B438B52018843F60F7296
:103A500011404CF28002A2F58052514001809BE45B
:103A6000B0F850202EF802C02EE000BF00231370E3
:103A7000BC466A7C012AA2D1A7E600BFBCF1000FB8
:103A800014D00CF001023EF8073002EB5C0243EA6E
:103A900082220FE0BCF1000F10D00CF001023EF8C2
:103AA000073002EB5C0243EA82220BE03EF807207B
:103AB00042F400422EF807206A8B06E03EF8072009
:103AC00042F400422EF807202A8B1FFA8CF306F0EE
:103AD000F7FF206899F8001040F63F7330F8212076
:103AE0001A4048F2C003103B5A4020F82120FFF74B
:103AF00053BC00BF2068B0F8441021F48061A0F8E6
:103B00004410204600F000FA94F8900201280DD1EC
:103B100001B0BDE8F08F00BF2068B0F8441021F478
:103B20008041A0F8441001B0BDE8F08F01200025CD
:103B300084F8900225732068002106F0B9FF84F80C
:103B4000905201B0BDE8F08F2068B0F8441021F425
:103B50000051A0F8441001B0BDE8F08F2068B0F823
:103B6000401021F00401A0F84010B0F8401021F0FE
:103B70000801A0F8401094F8C802012806D10020DE
:103B800084F8C80220460021FFF756FA204600F0CC
:103B9000CDF92068B0F8441021F48051A0F8441009
:103BA00001B0BDE8F08F00BF2168B1F8400040F0DF
:103BB0000800A1F84000B1F8440020F40060A1F82A
:103BC0004400B1F8400040F004022046A1F8402033
:103BD00001B0BDE8F04F00F0F3B900BF2068B0F8C5
:103BE000441021F08001A0F8441094F8C81299B153
:103BF000204601B0BDE8F04F00F0E2B92168B1F80D
:103C0000440020F400722046A1F8442001B0BDE831
:103C1000F04F00F09FB900BFB0F8401041F0040130
:103C2000A0F84010B0F8401041F00801A0F8401092
:103C3000012184F8C812B0F854003C2101EA900236
:103C400020460121C4F8CC2201B0BDE8F04FFFF7B7
:103C5000F3B90000002804BF0120704770B5044686
:103C600090F8910228B9002084F89002204600F0D4
:103C700001F9032084F89102206806F03BFA94F8D9
:103C800004E0BEF1000F00F0E2800EF0030CBEF184
:103C9000040F4FF0000237D30EF0FC03A4F1A00094
:103CA00003210125CE1E80F8B0608E1E80F8D860FA
:103CB0004E1E80F8006180F828110E1D013180F839
:103CC000B15080F8B320C0E93022C0F8C82080F895
:103CD000D95080F8DB20C0E93A22C0F8F02080F803
:103CE000015180F80321C0E94422C0F8182180F86E
:103CF000295180F82B21C0E94E22C0F84021A03084
:103D000099423146CED1F21EBCF1000F29D002EB10
:103D1000820004EBC00301210020BCF1010F5974A3
:103D20001A74D874C3E9080098621AD0531C03EBC4
:103D3000830504EBC505BCF1020F69742B74E874AC
:103D4000C5E90800A8620CD0901C00EB800104EBD0
:103D5000C1010122087400204A74C874C1E9080036
:103D60008862BEF1000F72D0BEF1040F4FF0000266
:103D700036D30EF0FC000321234600BFCE1E83F88D
:103D800050618E1E83F878614E1E83F8C8110D1D98
:103D9000013183F8512183F85321C3E95822C3F834
:103DA000682183F8792183F87B21C3E96222C3F873
:103DB000902183F8A12183F8A06183F8A321C3E9AE
:103DC0006C22C3F8B82183F8C92183F8CB21C3E959
:103DD0007622C3F8E021A03381422946CED1EA1EE3
:103DE000BCF1000F33D002EB820004EBC0010020D5
:103DF000BCF1010F81F8510181F8502181F8530184
:103E0000C1E95800C1F8680121D0511C01EB8103C0
:103E100004EBC303BCF1020F83F8510183F8501186
:103E200083F85301C3E95800C3F868010FD0901C10
:103E300000EB800104EBC101002281F8512181F8DF
:103E4000500181F85321C1E95822C1F8682194E852
:103E5000070006F041F900200121207384F8911237
:103E6000A17A012918BF70BD2046FFF7CFF80020C6
:103E700070BD000010B59AB00446684604304C216D
:103E8000FCF7C2F9206846F60001C4F2000188423E
:103E900002D01AB010BD00BF4FF480700090684689
:103EA00000F0BEF8002818BFFEF79AF84C24C5F6BB
:103EB0000004206814A940F001002060206800F090
:103EC0000100149014984FF4C050149002201590E3
:103ED0000020CDE916000A2018904FF09040FEF720
:103EE0005BFEE068012140F08060E060E068002255
:103EF00000F08060199019981420FFF74BF81420F7
:103F0000FFF724F81AB010BD10B504464079022816
:103F100018BFFEF765F8D4F8D802012105F0BCFB04
:103F2000D4F8D802BDE8104005F06CBB10B50446CB
:103F3000407A48B14EF61050CEF20000016821F0F0
:103F40000601016003F096FED4F8D802BDE81040E7
:103F500005F088BBD0F8D80205F08EBB10B504463A
:103F600090F89002012804BF022010BD012084F8BF
:103F700090022173206806F09BFD002084F89002D7
:103F800010BD0000D0F8D82200F52671104605F0CB
:103F900099BB000010B5044690F89002012804BFB8
:103FA000022010BD2068012184F8901206F01EFD49
:103FB000206806F087F8002084F8900210BD000009
:103FC00010B50446D0F8D80205F0D2FB607A00287C
:103FD00008BF10BD4EF61050CEF20000016841F04F
:103FE0000601016010BD000040F20440C5F600006B
:103FF000016841F4806101607047000040F20040B8
:10400000C5F60000006800F4C060704740F2004050
:10401000C5F60000016841F480710160704700003E
:104020002DE9F04381B00446007888274006C5F6A4
:10403000000717D5206B6FF0010101EBB051022989
:104040000BD34FEAB05100294CD0012960D157F869
:104050007C1C41F4803147F87C1C396821F4400114
:10406000084338604FF00009607800072AD5B86827
:10407000216C00F440758D4224D0FFF7C7FF002D5E
:104080004AD0B868B96820F4407041F48031B96012
:10409000B96821F48031B960216C0843B860B86810
:1040A000C0070FD0FEF74CFE064641F2893500BF2F
:1040B000B868800706D4FEF743FE801BA842F7D3FA
:1040C0004FF003092068C1072FD1810735D4C106FD
:1040D0003BD4810645D441074FD401075BD4C005CA
:1040E00067D4B6E04FF0B046306820F080603060B2
:1040F000FEF726FE054600BF3068000140F12C8126
:10410000FEF71EFE401B0228F6D94FF00309ABE76D
:104110004FF00109A8E700BF206CB96821F4407195
:104120000843B8602068C107CFD0A1693A6822F07F
:104130000302114339608107C9D5E1693A6822F465
:10414000406211433960C106C3D5A16A3A684FF68F
:10415000FF7363EA01031A4042EA014139608106B4
:10416000B9D5E16A3A684FF6FF7363EA01031A4072
:1041700042EA014139604107AFD5216A3A686FF4DC
:104180007F2363EA11131A4001F47F4142EA0111CF
:1041900039600107A3D5616A3A686FF47F2363EA47
:1041A00011131A4001F47F4142EA01113960C00540
:1041B0004FD5606B3968B0F1806F21F0406141EA02
:1041C000000139600CD0B0F1006F42D157F87C0C7F
:1041D00040F0807047F87C0C2068810560D53BE09A
:1041E0004FF0B045286820F080602860FEF7A8FDF9
:1041F000064600BF2868000106D5FEF7A1FD801B1A
:104200000228F7D923E000BF57F8780C616820F442
:10421000FE4040EA0120E26847F8780C57F8780C35
:104220004FF0B04520F06060104347F8780C2868E4
:1042300040F080602860FEF783FD06462868000194
:1042400000F1B280FEF77CFD801B0228F6D94FF00A
:1042500003092068810523D5A16B6FF04042B1F1BD
:10426000004F0DD061B1B1F1804F0B4609D03A68D3
:1042700021F0805322F040423A606FF0406200E04B
:104280000B463E68B1F1C05F02EA060242EA030251
:104290003A6005D157F87C1C41F0807147F87C1CCE
:1042A00040054FD5E06B3968B0F1805F21F0405197
:1042B00041EA000139600DD0B0F1005F42D157F8FA
:1042C0007C0C40F4803047F87C0C2068C10400F17D
:1042D00080803AE04FF0B045286820F08060286088
:1042E000FEF72EFD064600BF2868000106D5FEF742
:1042F00027FD801B0228F7D922E000BF57F8780C71
:10430000616820F4FE4040EA0120226947F8780CF9
:1043100057F8780C4FF0B04520F06040104347F854
:10432000780C286840F080602860FEF709FD06469A
:104330002868000144D4FEF703FD801B0228F7D94A
:104340004FF003092068C10443D4800449D448468F
:1043500001B0BDE8F08300BF57F8780CD4E9011232
:1043600020F4FE4040EA012047F8780C57F8780C1A
:104370004FF0B04820F47810104347F8780CD8F884
:10438000000040F08060C8F80000FEF7D9FC064647
:104390004FF00309D8F80000000137D4FEF7D0FC35
:1043A000801B0228F6D95FE6606957F8781C08433D
:1043B00047F8780C206881057FF572AF4CE700BFA5
:1043C000606957F8781C084347F8780C2068C104E6
:1043D000BBD5616CFA6822F440421143F960800455
:1043E000B5D5D4E9120157F8642C22F030021143FC
:1043F00047F8641C57F8641C21F00301084347F890
:10440000640C484601B0BDE8F08300BF57F8781C43
:104410006269206B114347F8781C1EE62DE9F043D2
:1044200081B0002800F0CB8044F20008C5F60008F7
:104430000546D8F800000C4600F00700884215D267
:10444000D8F8000020F007002043C8F80000FEF76D
:1044500077FC0646D8F8000000F00700A04205D01F
:10446000FEF76EFC801B0228F4D977E02868082745
:104470008107C5F6000714D5A868396821F0F00156
:1044800008433860FEF75CFC064600BF3868C0038E
:1044900006D4FEF755FC801B0228F7D95EE000BF6A
:1044A0002868810615D56869D7F8001121F0F00158
:1044B0000843C7F80001FEF743FC0646D7F80001A1
:1044C000800305D4FEF73CFC801B0228F6D945E0AA
:1044D0002868410617D5A869D7F8001121F00F0107
:1044E00041EA1010C7F80001FEF72AFC064600BF9B
:1044F000D7F80001C00305D4FEF722FC801B022878
:10450000F6D92BE02868410713D5E868396821F40B
:10451000E06108433860FEF713FC06463868800304
:1045200006D4FEF70DFC801B0228F7D916E000BF69
:104530002868010717D52869396821F4605141EAD4
:10454000C0003860FEF7FCFB064600BF3868400339
:1045500008D4FEF7F5FB801B0228F7D9032001B031
:10456000BDE8F0832868C0071ED1D8F8000000F02D
:104570000700A04228D9D8F8000020F00700204307
:10458000C8F80000FEF7DCFB054600BFD8F80000C5
:1045900000F00700A04217D0FEF7D2FB401B022814
:1045A0004FF00300F2D947E068684FF0B04138B3EC
:1045B000032845D0022847D10968890323D4012064
:1045C00001B0BDE8F08300BF386800F00C0142F292
:1045D00000400829C0F2F4003AD0042972D0002922
:1045E00040D14FF0B04000684CF2C85100F0F000EC
:1045F000B02828BFB0208008C0F60001085861E04C
:1046000009688907DBD5396821F003010843386060
:10461000FEF796FB064641F2883900BF38686968A4
:1046200000F00C00B0EB810F9FD0FEF789FB801BE0
:1046300048454FF00300F1D901B0BDE8F08300BF59
:1046400009688901BBD5DEE709684905B7D5DAE70E
:104650004FF0B0410968C9025CBF44F60000C0F2E7
:10466000E8102FE0796801F0030102291AD003292C
:104670000AD14FF0B0410968C9025CBF44F600009E
:10468000C0F2E8100EE000BF4FF0B04000684CF2FE
:10469000C85100F0F000B02828BFB0208008C0F654
:1046A0000001085879687A68C1F306214843C2F3CB
:1046B00002110131B0FBF1F07968012202EB517176
:1046C000B0FBF1F039683C2202EA91014CF26852E9
:1046D000C0F600025158B0FBF1F040F24001C2F2C6
:1046E00000010860FEF732FB01B0BDE8F043FEF7C1
:1046F000C7BB00000C20C5F6000050F8041C01F0F8
:104700000C0242F20041082AC0F2F40112D0042A3D
:104710004AD0CAB94FF0B04109684CF2C85201F012
:10472000F001B02928BFB0218908C0F60002515815
:104730003AE000BF4FF0B0421268D2025CBF44F6CC
:104740000001C0F2E8112FE0026802F00302022A21
:104750001AD0032A0AD14FF0B0421268D2025CBFCD
:1047600044F60001C0F2E8110EE000BF4FF0B04186
:1047700009684CF2C85201F0F001B02928BFB021FD
:104780008908C0F60002515802680368C2F3062285
:104790005143C3F302120132B1FBF2F1026801236B
:1047A00003EB5272B1FBF2F150F8040C3C2202EA26
:1047B00090004CF26852C0F600021058B1FBF0F0C5
:1047C000704700000C20C5F6000050F8041C01F0F2
:1047D0000C0242F20041082AC0F2F40112D0042A6D
:1047E0004AD0CAB94FF0B04109684CF2C85201F042
:1047F000F001B02928BFB0218908C0F60002515845
:104800003AE000BF4FF0B0421268D2025CBF44F6FB
:104810000001C0F2E8112FE0026802F00302022A50
:104820001AD0032A0AD14FF0B0421268D2025CBFFC
:1048300044F60001C0F2E8110EE000BF4FF0B041B5
:1048400009684CF2C85201F0F001B02928BFB0212C
:104850008908C0F60002515802680368C2F30622B4
:104860005143C3F302120132B1FBF2F1026801239A
:1048700003EB5272B1FBF2F150F8042C3C2303EA33
:1048800092024CF26853C0F600039A5850F8040C98
:104890004CF2A853C0F30220C0F6000353F82000E6
:1048A000B1FBF2F100F01F0021FA00F070470000A8
:1048B0000C20C5F6000050F8041C01F00C0242F276
:1048C0000041082AC0F2F40112D0042A4AD0CAB921
:1048D0004FF0B04109684CF2C85201F0F001B02924
:1048E00028BFB0218908C0F6000251583AE000BF45
:1048F0004FF0B0421268D2025CBF44F60001C0F231
:10490000E8112FE0026802F00302022A1AD0032AFB
:104910000AD14FF0B0421268D2025CBF44F60001E7
:10492000C0F2E8110EE000BF4FF0B04109684CF250
:10493000C85201F0F001B02928BFB0218908C0F6A3
:104940000002515802680368C2F306225143C3F3C0
:1049500002120132B1FBF2F10268012303EB527241
:10496000B1FBF2F150F8042C3C2303EA92024CF222
:104970006853C0F600039A5850F8040C4CF2A85340
:10498000C0F3C220C0F6000353F82000B1FBF2F1DF
:1049900000F01F0021FA00F0704700000C21C5F65E
:1049A000000151F8040C00F00C0242F20040082A09
:1049B000C0F2F40024D0042A08BF704772B94FF047
:1049C000B04000684CF2C85100F0F000B02828BF99
:1049D000B0208008C0F60001085870470A6802F04D
:1049E0000302022A24D0032A14D14FF0B0421268E5
:1049F000D2025CBF44F60000C0F2E81018E000BF2D
:104A00004FF0B0410968C9025CBF44F60000C0F233
:104A1000E81070474FF0B04000684CF2C85200F008
:104A2000F000B02828BFB0208008C0F6000210585F
:104A30000A680B68C2F306225043C3F30212013224
:104A40000968B0FBF2F0012202EB5171B0FBF1F00A
:104A500070470000002804BF01207047F0B581B006
:104A60000446007894268006C5F6000656D42078C1
:104A7000C00713D056F88C0C00F00C0156F8880CC7
:104A8000082907D00C2940F0DD8000F0030003283E
:104A900040F0D8806068002800F0348320788007D8
:104AA0001CD556F88C0C00F00C0156F8880C042923
:104AB00007D00C2940F0E88000F00300022840F005
:104AC000E380E068002800F01D83206956F8901C00
:104AD00021F0FE4141EA006046F8900C216811F097
:104AE000180F00F0798162693068002A00F0988020
:104AF000C90600F1B38040F001003060FEF720F9F4
:104B0000054600BF3068800700F12481FEF718F9E0
:104B1000401B02284FF00300F4D925E356F88C0C13
:104B200010F00C0156F8880C05D00C292AD100F0A1
:104B30000300012826D1E069002800F0E3824FF04D
:104B4000B041606A0A6802F0F002B02A28BFB022C1
:104B5000904231D902F0BCFB002840F0D3824FF0E4
:104B6000B042D4E90801136823F0F003194311603F
:104B700056F8901C21F47F4141EA002046F8900C41
:104B80002DE000BFE1694FF0B0473868002900F020
:104B9000958040F001003860FEF7D2F8054600BF6E
:104BA0003868800700F1B080FEF7CAF8401B022881
:104BB0004FF00300F4D9D7E20A6822F0F002024372
:104BC0000A60216A56F8902C22F47F4242EA0121C1
:104BD00046F8901C02F07CFB002840F0938256F8C7
:104BE0008C0C00F00C0142F200400829C0F2F400E5
:104BF00000F00082042900F06A82002940F004825B
:104C00004FF0B04000684CF2C85100F0F000B028FE
:104C100028BFB0208008C0F60001085857E200BF46
:104C200020F004003060FEF78BF80546306800077E
:104C300040F17C80FEF784F8401B03284FF003000E
:104C4000F4D991E261684FF0B0400268B1F5803F5D
:104C500040F0908042F48031016091E080073FD4C1
:104C6000306840F001003060FEF76AF8054600BF8A
:104C70003068800734D4FEF763F8401B02284FF0F9
:104C80000300F5D970E200BFE1684FF0B047386823
:104C9000002900F09D8140F480703860FEF750F8E4
:104CA000054600BF386840053FF50FAFFEF748F8EE
:104CB000401B02284FF00300F4D955E220F0010018
:104CC0003860FEF73DF80546386880077FF5CFAEBF
:104CD000FEF736F8401B02284FF00300F4D943E2F8
:104CE000306840F004003060FEF72AF8054600BF47
:104CF0003068000756D4FEF723F8401B03284FF016
:104D00000300F5D930E200BF4FF0B042D4E908010A
:104D1000136823F0F0031943116056F8901C21F436
:104D20007F4141EA002046F8900CA0E6306820F070
:104D300001003060FEF704F8054600BF30688007C8
:104D40004AD5FDF7FDFF401B02284FF00300F5D9BF
:104D50000AE200BF306820F00400306030680007CD
:104D60003AD5FDF7EDFF401B03284FF00300F5D9BE
:104D7000FAE100BF22F480320029026000F056817F
:104D8000FDF7DEFF05464FF0B04700BF38688003EF
:104D90003FF584AEFDF7D4FF401B64284FF00300BD
:104DA000F4D9E1E1A069316821F4706141EA0020A1
:104DB0003060306820F001003060FDF7C1FF05462B
:104DC0003068800708D5FDF7BBFF401B02284FF075
:104DD0000300F5D9C8E100BF2078400752D42078FD
:104DE000400677D4E06A002800F0C08156F88C2C89
:104DF00056F8881C022802F00C0040F08180226BDB
:104E000001F00303934240F09380626B01F0700362
:104E1000934240F08D80A26BC1F30623934240F091
:104E20008780E26B01F47813934240F08180226C1A
:104E300001F06063934240F07B80626C01F060415E
:104E4000914275D14FF0B0452868800100F18E8104
:104E5000286840F08070286056F8880C40F0805038
:104E600046F8880CFDF76CFF04462868800100F1C5
:104E70007D81FDF765FF001B02284FF00300F4D988
:104E800072E100BFD6F86C03C00511D4FFF7BEF87D
:104E9000FDF756FF054600BFD6F86C03C00507D4E2
:104EA000FDF74EFF401B02284FF00300F4D95BE1F1
:104EB000A068012807D0052868D156F8040C40F0F6
:104EC000040046F8040C56F8040C40F0010046F8C3
:104ED000040C69E0A16A7068002945D040F0010027
:104EE0007060FDF72DFF0546706880073FF57AAFCB
:104EF000FDF726FF401B02284FF00300F4D933E1F1
:104F00000C2800F0FF804FF0B045286820F080703A
:104F10002860FDF715FF04462868800140F1AA804B
:104F2000FDF70EFF001B02284FF00300F4D91BE130
:104F30000C2800F0E7804FF0B0473868400100F1DE
:104F4000E180386820F080703860FDF7F9FE054692
:104F50003868800140F1DA80FDF7F2FE401B02283C
:104F60004FF00300F4D9FFE020F001007060FDF77E
:104F7000E7FE0546706880077FF534AFFDF7E0FE79
:104F8000401B02284FF00300F4D9EDE056F8041C52
:104F9000002821F0010146F8041C56F8041C21F0F9
:104FA000040146F8041C53D0FDF7CAFE054641F241
:104FB000883700BF56F8040C80073FF510AFFDF7A7
:104FC000BFFE401BB8424FF00300F3D9CCE000BF56
:104FD00020F480703860FDF7B3FE05463868400560
:104FE0007FF57CADFDF7ACFE401B02284FF00300BF
:104FF000F4D9B9E04FF0B0410968C9025CBF44F68A
:105000000000C0F2E81062E056F8881C01F00301CD
:10501000022949D0032939D14FF0B0410968C902AA
:105020005CBF44F60000C0F2E8103DE0FDF788FEEA
:1050300005464FF0B04700BF386880037FF52EADBE
:10504000FDF77EFE401B64284FF00300F4D98BE08F
:10505000FDF776FE054641F2883756F8040C8007C6
:105060007FF5BDAEFDF76CFE401BB8424FF003006C
:10507000F3D979E056F8880C4FF6FC71CEF6FE6154
:10508000084046F8880C002001B0F0BD4FF0B04059
:1050900000684CF2C85100F0F000B02828BFB020E2
:1050A0008008C0F60001085856F8881C56F8882C6D
:1050B000C1F306214843C2F302110131B0FBF1F004
:1050C00056F8881C012202EB5171B0FBF1F056F842
:1050D0008C1C3C2202EA91014CF26852C0F600029C
:1050E000515840F24002B0FBF1F140F21000C2F220
:1050F00000000068C2F200021160FDF7C1FE002846
:105100003FF4B5AC012001B0F0BD00BF56F8880CEB
:1051100048F28C01C1F2C11104F1300708408ECF72
:10512000D4E910540843104340EA0320384328438D
:10513000204346F8880C4FF0B045286840F0807056
:10514000286056F8880C40F0805046F8880CFDF72F
:10515000F7FD04462868800108D4FDF7F1FD001B27
:1051600002284FF00300F5D901B0F0BD002001B0D6
:10517000F0BD0000F0B581B0044690F82000012891
:105180004FF0020061D00E46012184F8201084F80F
:1051900021002068CA21416253214162816815467D
:1051A000490519D4816821F480618160C16861F486
:1051B000906121F48061C160FDF7C2FD074600BF28
:1051C0002168C868400719D4FDF7BAFDC01BB0F5C7
:1051D0007A7FF5D90EE000BFFDF7B2FD074600BFAC
:1051E0002068C1684907DDD5FDF7AAFDC01BB0F5F1
:1051F0007A7FF5D92168032203201FE04E61886879
:1052000020F00700886088682843886040F6000026
:10521000C5F60000D0F8802042F40022C0F88020BB
:10522000026842F4002202608868012240F4804053
:105230008860886840F4806088600020FF234B62AB
:10524000002184F8212084F8201001B0F0BD000076
:1052500010B5006840684FEA1043C0F3042E00F018
:105260003F0CC0F34234CB7081F801E081F802C0FA
:105270000C700AB1002010BDDCB2240904EB8404D8
:1052800003F00F0303EB4403020ACB704FEA1E1333
:1052900043EA830302F00F0202EB43024A704FEA33
:1052A0001C1242EA820200F00F0000EB42008870FC
:1052B000002010BD10B500684024836A4B6003696C
:1052C0006FF3DF338B600068C0F30543C0F3062E35
:1052D00000F07F0C04EA10440B7081F801E081F8C3
:1052E00002C0CC7012B1002010BD00BF020C1B091F
:1052F00043EA830302F00F0202EB4302040A0A703E
:105300004FEA1E1202EB820204F00F0303EB42028B
:105310004A704FEA1C1202EB820200F00F0000EB11
:1053200042008870002010BD002804BF0120704793
:10533000B0B5044690F8210028B9002084F8200078
:10534000204600F077F8022084F8210042F60C0095
:10535000C4F200000068C00666D42068CA21416219
:1053600053214162C168490618D44FF0FF31C16032
:10537000FDF7E6FC054600BF2068C16849060DD46C
:10538000FDF7DEFC401BB0F57A7FF5D92068FF21E0
:105390004162042084F821000120B0BD81684FF6ED
:1053A000BF72CFF68F7211408160D4E9011CD4E93D
:1053B00003531943A369826819431143816005614E
:1053C000016941EA0C410161C16821F08001C160BD
:1053D000C16C21F00301C164E1696269C36C1143CE
:1053E0001943C164816889061CD4C16821F0A001F9
:1053F000C160FDF7A5FC05462068C168890611D487
:10540000FDF79EFC401BB0F57A7FF5D92068FF219F
:105410004162042084F82100002084F8200001204B
:10542000B0BD00BFFF214162012084F821000020AF
:10543000B0BD000010B596B0044601A804304C2160
:10544000FAF7E2FE206842F60001C4F20001884249
:1054500002D016B010BD00BF4FF4006001904FF4B1
:105460008070119001A8FEF7DBFD002818BFFCF743
:10547000B7FD5820C5F60000816B002241F40041C1
:105480008163016841F4806101600068022100F4D9
:105490008060159015980320FDF77CFD0320FDF733
:1054A00055FD16B010BD00002DE9F04381B0044653
:1054B00090F8200001284FF0020000F09C800123AA
:1054C00084F8203084F8210032B14878CA788E7888
:1054D000000240EA024845E048784FF0CD0CC20691
:1054E00042BF00F0EF000A304870CA784FF001095F
:1054F000A2F10A07FDB205FB0CF5EB0A03EB8303EF
:105500005FFA82FEA7EB43038E7809EBD525BEF147
:10551000090F88BF43EA0512A0F10A03DDB205FBBB
:105520000CF5EF0A07EB8707A3EB470309EBD52739
:10553000092888BF43EA0710C0B2D2B2000240EA8D
:105540000248A6F10A02D3B203FB0CF3DF0AF0B261
:1055500007EB8707A2EB470209EBD323092888BF93
:1055600042EA03160F782168CA2048625320486235
:10557000C868400612D44FF0FF30C860FDF7E0FB6A
:10558000054600BF2168C868400607D4FDF7D8FB70
:10559000401BB0F57A7FF5D920E000BFF0B240EAB9
:1055A00008007A0320F0C00010434860C86820F06B
:1055B0008000C8608868800614D4C86820F0A00005
:1055C000C860FDF7BDFB05462168C868800609D4A0
:1055D000FDF7B6FB401BB0F57A7FF5D921680120B5
:1055E000042201E000200122FF234B62002184F805
:1055F000212084F8201001B0BDE8F0832DE9F04FA0
:1056000081B0044690F8200001284FF0020000F01D
:10561000C0800D46012184F8201084F82100216803
:1056200088683AB140060DD44FF0000885F8038031
:105630000BE000BF400611D44FF0000885F803804E
:105640000FE000BFE8784FEA00486A78287895F8BC
:1056500002A0120242EA004947E000BFE8784FEAA0
:1056600000482A784FF0CD0CA2F10A00C6B206FB22
:105670000CF66B78F70A4FF0010B5FFA82FE07EB2E
:1056800087070BEBD62695F802A0A0EB4700BEF1EA
:10569000090F88BF40EA0612A3F10A06F7B207FB1A
:1056A0000CF7F80A5FFA82FEDAB200EB8000A6EB94
:1056B00040000BEBD726092A88BF40EA0613AAF15F
:1056C0000A02D8B2D3B203FB0CF30002DF0A40EAAD
:1056D0000E495FFA8AF007EB8707A2EB47020BEB54
:1056E000D323092888BF42EA031ACA2048625320FC
:1056F0004862C868400611D44FF0FF30C860FDF71B
:105700001FFB06462168C868400607D4FDF718FB52
:10571000801BB0F57A7FF5D92EE000BF5FFA8AF0E2
:1057200040EA090047F67F7240EA0800C0F27F02B3
:1057300010400860886820F480208860D5E9030262
:105740008B68104318438860C86820F08000C860E8
:105750008868800614D4C86820F0A000C860FDF7EF
:10576000EFFA05462168C868800609D4FDF7E8FA13
:10577000401BB0F57A7FF5D921680120042201E0B1
:1057800000200122FF234B62002184F8212084F8AD
:10579000201001B0BDE8F08F411E0020B0EB116F6A
:1057A0001CBF012070474EF21002CEF20002516081
:1057B0004EF62351CEF20001F0230B7007219060CA
:1057C0001160704790F88410012904BF02207047CF
:1057D0002421C0F8881002681168136823F00103BF
:1057E000136021F000530021416613602022C0F8AD
:1057F000882080F884100846704700007047000039
:105800007047000090F88420012A04BF02207047EE
:10581000B0B52422C0F888200268D0F864E0D2F83D
:1058200000C01368BEF1000F23F0010313609368FA
:1058300023F0606341EA0301916019D09368916895
:105840004CF28C7E490FC0F6000E4CF294751EF897
:105850000140C0F60005695CC3F34263E400B4FB99
:10586000F1F11EF80340EB5CE500B5FBF3F301E05A
:1058700001210123A0F86A102021A0F86830C2F8A5
:1058800000C0C0F88810002180F88410BDE8B04046
:105890000846704790F88420012A04BF0220704710
:1058A000B0B52422C0F888200268D0F864E0D2F8AD
:1058B00000C01368BEF1000F23F00103136093686A
:1058C00023F0604341EA0301916019D09368916825
:1058D0004CF28C7E490FC0F6000E4CF294751EF807
:1058E0000140C0F60005695CC3F34263E400B4FB09
:1058F000F1F11EF80340EB5CE500B5FBF3F301E0CA
:1059000001210123A0F86A102021A0F86830C2F814
:1059100000C0C0F88810002180F88410BDE8B040B5
:10592000084670477047000070470000704700004D
:1059300070B5016840F62F03CA69044608688E688E
:105940001340202B0CD100F0200306F080555B198A
:1059500017D0616F69B32046BDE87040084700BFAB
:1059600040F60F031A420CD00123C1F2000306EAED
:10597000030C40F22013C0F20043034013EB0C036E
:1059800028D1E36ED50615D5012B13D110F01003E5
:1059900010D0102008628868400627D4B4F85C0054
:1059A000B4F85E10B4F85E20002A18BF884240F0B8
:1059B0003F8270BDD30240F1D58016F4800300F021
:1059C000D1804FF4801220460A62BDE87040FFF794
:1059D000ABBF00BFD30718BF10F4807340F00C8139
:1059E000930706F0010E00F113811CE1D4F880004A
:1059F000006841688AB2002ADBD0B4F85C309A4271
:105A0000D7D2A4F85E100068800600F19E8020685E
:105A100050E8000F216820F4807041E80002DAB1FC
:105A2000206850E8000F216820F4807041E80002EF
:105A300092B1206850E8000F216820F4807041E89E
:105A400000024AB1206850E8000F216820F48070FD
:105A500041E80002002ADAD1206850E8020F2168EC
:105A600020F0010041E80202BAB3206850E8020FBA
:105A7000216820F0010041E8020272B3206850E87A
:105A8000020F216820F0010041E802022AB32068D9
:105A900050E8020F216820F0010041E80202002ACC
:105AA000DAD11AE0206850E8020F216820F04000A7
:105AB00041E80202DAB1206850E8020F216820F0C4
:105AC000400041E8020292B1206850E8020F2168CC
:105AD00020F0400041E802024AB1206850E8020F7D
